:1000000082C000009CC000009AC0000098C00000A0
:1000100096C0000094C0000092C0000090C0000094
:100020008EC000008CC000008AC00000E1C6000045
:1000300086C0000084C0000082C0000035C10000FE
:1000400042C100007CC000007AC0000078C00000FF
:1000500076C0000074C0000072C0000070C00000D4
:100060006EC000006CC000006AC0000068C00000E4
:1000700066C000001201000200000020EB03132004
:10008000001001020001090229000101008032096B
:1000900004000002030000000921110100012235C3
:1000A00000070581034000140705020340001408FF
:1000B000034B005400550016034E0041005600202B
:1000C00000530059005300540045004D000403093B
:1000D0000406FFFF0901A10109020903150026FF1B
:1000E0000075089540810209040905150026FF00E6
:1000F00075089540910209060907150026FF00754D
:10010000089504B102C011241FBECFEFD2E0DEBFBC
:10011000CDBF81E011E0A0E0B1E0E6E0F0E102C097
:1001200005900D92A230B107D9F711E0A2E0B1E03D
:1001300001C01D92A939B107E1F719D062C760CF9C
:100140008FB7F89497EF94BF98E10FB6F894909317
:100150006000109260000FBE87FF01C07894089580
:100160004CD730D1FDCF4BD72FC1FDDFF9CFE3E620
:10017000F0E080818E7F8083E3DF38D11092990197
:1001800010929A0110929B0110929C01F894E1E662
:10019000F0E080E880831082E8DF80E090E008955E
:1001A00084B1876084B92398289A80E58CBD08952E
:1001B0008EBD0DB407FEFDCF8EB50895CF93DF93AE
:1001C000EC012898DA0120E030E00CC0FE01E20FDB
:1001D000F31F80818EBD0DB407FEFDCF8EB58D93CC
:1001E0002F5F3F4F261790F3289ADF91CF91089504
:1001F0001F93289880E0DCDF80E0DADF80E0D8DF42
:10020000182F80E0D5DF289A512F40E0282F30E0CA
:10021000242B352BC9011F910895DF93CF9300D074
:1002200000D0CDB7DEB799838A83CE01019662E014
:10023000AE014D5F5F4FC2DF0F900F900F900F9098
:10024000CF91DF91089583EF99E8E7DF80E293EAA9
:10025000E4DF82E098ECE1DF8FE996ECDEDF8BE211
:1002600094ECDBDF81E09AEDD8CFE1E8F0E010829A
:1002700010928500109284001092800086B38660F0
:1002800086BB80E593EC909389008093880088E199
:1002900096EF90938B0080938A0086E080936F00A6
:1002A000599A82E0808308951F920F920FB60F92A1
:1002B00011248F9381E0809303018F910F900FBEE3
:1002C0000F901F9018951F920F920FB60F92112446
:1002D0008F9381E080930201109281008F910F90A3
:1002E0000FBE0F901F9018959C01462F81E08093C0
:1002F000E9008091E80085FD02C080E0089581E07A
:10030000B901FCD08091E8008E7F8093E800809155
:10031000E8008F778093E80081E008951C9941C040
:1003200067DFAC015F779A0160E004C0620F617023
:100330003695279521153105C9F7892F881F8827FC
:10034000881F681731F54115510519F184E14435CD
:10035000580771F45A9A109202011092030185DF36
:10036000ECE4F1E0119281E0EC38F807D9F711C024
:1003700080910301882369F0599ACA019F70E52F83
:10038000E695E695E695EE70F0E0E45BFE4F90832F
:10039000818384EF9EEC41DF87EF9EEC3EDF59982E
:1003A0005A9880910201882361F0809193018823FB
:1003B00021F08CE491E060E497DF1092020110924A
:1003C00003010895ABCF08958AB186608AB9249855
:1003D000E7DE39DF84EF9EEC20DF87EF9EEC1DDF48
:1003E00081EC90EC1ADF04DF7894089580919901F4
:1003F00090919A01A0919B01B0919C0185559A4AD8
:10040000AA4AB54569F41092990110929A01109286
:100410009B0110929C01E0910001F091010109956E
:100420000895E8EDF0E080818F7780838081806897
:10043000808308958091D80080628093D80082E004
:1004400089BD09B400FEFDCF8091D8008F7D8093D7
:10045000D8008091E0008E7F8093E0008091E000E2
:100460008B7F8093E0005AD08091E200816080937E
:10047000E2008091E20088608093E2007894089521
:1004800080910401882321F481E080930401D2DF6C
:1004900080910A0190910B0190FF10C080910A0198
:1004A00090910B019E7F90930B0180930A0181E054
:1004B0008093EA001092EA00109293011092E900F2
:1004C0008091E80083FF01C04AC208959091EB003B
:1004D00091609093EB008093EC008091ED0082702E
:1004E000862B8093ED008091ED0082608093ED007B
:1004F0008091EE00881F8827881F0895FB01809354
:10050000E90004C081918093F10041508091E8009E
:1005100085FF02C04423B1F7842F08951092E900AB
:100520008091EB0080FF02C080E008951092E90006
:1005300082E060E2CBCF80E00895892B19F581E05D
:100540008093E9008091EB0080618093EB0092E062
:100550009093EA001092EA008091EB00886080930B
:10056000EB009093E9008091EB0080618093EB00B9
:1005700084E08093EA001092EA008091EB008860AA
:100580008093EB0008958330F1F4613059F06130CD
:1005900018F06230C1F40CC084E0809394018DECBB
:1005A00090E00BC088E0809394018FEA90E005C052
:1005B00086E18093940187EB90E09093960180937D
:1005C000950181E0089580E00895DF93CF9300D0F6
:1005D00000D0CDB7DEB78091F1008B838091F10020
:1005E0008C8385E38093940181ED90E09093960154
:1005F000809395018091F10089838091F1008A8335
:100600008091E800877F8093E80089819A81863312
:10061000910528F04091940121ED30E01CC08093B9
:100620009401F8CF8091E80080FFFCCFF90190E0C1
:100630000AC0542F5150903249F09F5F84918093AB
:10064000F1003196452F9F01442399F78091E800EE
:100650008E7F8093E800442359F08091E80082FF68
:10066000E1CF30939601209395014093940106C009
:100670003093960120939501109294018091E800A7
:1006800082FFFCCF8091E8008B7F8093E80080910F
:10069000E8008F778093E8000F900F900F900F90F5
:1006A000CF91DF9108958091E800877F8093E800E3
:1006B0008091E8008E7F8093E8008091E80082FFBF
:1006C000FCCF8091E8008B7F8093E8008091E80068
:1006D0008F778093E8008091E8008E7F8093E80018
:1006E0000895DF93CF9300D0CDB7DEB78091F100AE
:1006F00089838091F1008A838091E800877F8093CD
:10070000E800609307018091E8008E7F8093E80005
:100710008091E80080FFFCCF0F900F90CF91DF9188
:100720000895DF93CF9300D000D0CDB7DEB780918E
:10073000F1008B838091F1008C838091F10089839B
:100740008091F1008A838091E800877F8093E800A0
:1007500089819A81892B49F0809107018093F1006A
:100760008091E8008E7F8093E8008091E80082FF0E
:10077000FCCF8091E8008B7F8093E8008091E800B7
:100780008F778093E8000F900F900F900F90CF918C
:10079000DF9108958091E800877F8093E800809141
:1007A000E8008E7F8093E8008091E80082FFFCCF14
:1007B0008091F100853579F48091F1008A3A59F4FD
:1007C0008091F100853539F48091F1008A3A19F46D
:1007D00081E0809306018091E8008B7F8093E800A0
:1007E0008091E8008F778093E8008091E8008E7F09
:1007F0008093E8008091E80080FFFCCF0895DF93AC
:10080000CF9300D000D0CDB7DEB78091F1008B83BD
:100810008091F1008C8389E08093940188E990E0D5
:1008200090939601809395018091F1008983809146
:10083000F1008A838091E800877F8093E8008981B6
:100840009A818A30910528F04091940128E930E09E
:100850001CC080939401F8CF8091E80080FFFCCF0A
:10086000F90190E00AC0542F5150903249F09F5F37
:1008700084918093F1003196452F9F01442399F78D
:100880008091E8008E7F8093E800442359F08091A6
:10089000E80082FFE1CF30939601209395014093C9
:1008A000940106C030939601209395011092940113
:1008B0008091E80082FFFCCF8091E8008B7F8093DD
:1008C000E8008091E8008F778093E8000F900F9008
:1008D0000F900F90CF91DF9108952091F1009091AA
:1008E000F100813859F4663029F5913219F09232CD
:1008F00009F502C084DF1CC068DE1AC0813291F4A1
:10090000693019F06A30B1F409C0923019F09330AF
:1009100089F402C0C8DE0CC03DDF0AC0822F692FF7
:10092000E0DE06C0813A31F4623021F4822FF9DE34
:1009300081E0089580E008950F931F9309EE10E081
:1009400081E0F801808381EC60E3C0DD82E0F801A2
:10095000808380EC60E3BADD1F910F9108950F93BF
:100960001F93DF93CF9300D0CDB7DEB78091E8001F
:100970008B7F8093E8001091F1000091F100063028
:10098000F9F0073068F4013009F413C1013008F4BC
:1009900080C1033009F441C1053009F0F5C1D2C06E
:1009A000093009F4EFC00A3020F4083009F0ECC136
:1009B000A4C00A3009F4A3C10B3009F0E5C1C2C1DB
:1009C000103809F0E1C16091F1008091F1008130AF
:1009D00019F0823089F406C082E18093940184E7A3
:1009E00090E005C089E28093940186E890E09093BE
:1009F00096018093950104C0C6DD882309F4C4C123
:100A00008091F1008091F1008091F10089838091C3
:100A1000F1008A838091E800877F8093E800298134
:100A20003A818091940190E08217930730F48F719E
:100A30009070892B21F461E003C02093940160E061
:100A40008091E8008F7E8093E8002091950130919D
:100A500096014091940122C08091E80084FF03C078
:100A6000F90190E00FC08091E80080FFF5CFF8CF4A
:100A7000542F5150903249F09F5F84918093F10040
:100A80003196452F9F01442399F78091E80084FD1A
:100A900012C08091E8008E7F8093E800442339F4EF
:100AA0002093950130939601109294010AC0809191
:100AB000E80084FFD8CF20939501309396014093AE
:100AC0009401613069F48091E80084FD09C080914F
:100AD000E80080FFFCCF8091E8008E7F8093E800E3
:100AE0008091E80084FFFCCF8091E8008F7E8093A6
:100AF000E8008091E8008B7F22C0103809F044C1E3
:100B00008091E800877F8093E80080919301809333
:100B1000F1008091E8008E7F8093E8008091E800EA
:100B20008F778093E8008091E80082FFFCCF80916E
:100B3000E8008B7F8093E8008091E8008F778093B6
:100B4000E80034C1112309F01FC19091F100809198
:100B5000E3009F778078982B9093E3008091E800E2
:100B6000877F8093E8008091E8008E7F8093E80083
:100B70008091E80080FFFCCF8091E3008068809343
:100B8000E30014C1112309F0FFC09091F1009230ED
:100B900008F0FAC08091E800877F8093E800909386
:100BA00093018091E8008E7F8093E800892FC4DE56
:100BB000FDC01123C1F1123009F0E6C08091F100AF
:100BC0009091F100882309F0DFC0E091F100EF7708
:100BD000E093E9008091EB0080FF43C0EE23B1F089
:100BE0008091EB0080618093EB0081E090E00E2E1D
:100BF00002C0880F991F0A94E2F78093EA001092CE
:100C0000EA008091EB0088608093EB001092E9008D
:100C1000F0E0E457FE4F108233C0112321F0123070
:100C200009F0B2C003C08091F100AEC08091F10024
:100C30009091F100882309F0A7C0E091F100EF77CF
:100C400051F48091EB0080628093EB008091E8008A
:100C5000877F8093E800E093E9008091EB0080FDBE
:100C600003C01092E90090C08091EB0080628093F5
:100C7000EB001092E900F0E0E457FE4F81E0808342
:100C80008091E800877F8093E8008091E8008E7F64
:100C900056CF8091F1008091F100E091F100113880
:100CA00069F0123899F0103809F06EC08091E800B0
:100CB000877F8093E8008091090113C08091E8004C
:100CC000877F8093E8001092F1000DC08091E800CA
:100CD000877F8093E800F0E0EF77F070E457FE4FF5
:100CE00080818093F1001092F1008091E8008E7F66
:100CF0008093E8008091E80082FFFCCF18CF113884
:100D000009F042C08091F1008091F1009091F100D2
:100D100099839091F1009A838823B1F58091E8003E
:100D2000877F8093E80089819A8105DC8093F100B8
:100D30008091E8008E7F8093E8008091E80082FF38
:100D4000FCCFF5CE113001F56091F1008091F100FA
:100D50009091F10099839091F1009A838823A1F4F6
:100D60008091E800877F8093E80089819A81E5DBA4
:100D70001092E9008091E8008E7F8093E8008091D6
:100D8000E80080FFFCCF12C0812F602FA6DD8823F2
:100D900069F48091EB0080628093EB008091E80021
:100DA000877F8093E80081E080938C010F900F9003
:100DB000CF91DF911F910F910895282F16C01092A7
:100DC00098011092970109C0809197019091980124
:100DD000019690939801809397018091970190914B
:100DE0009801845F914080F32150222341F70895B8
:100DF0001F920F920FB60F9211242F933F934F9390
:100E00005F936F937F938F939F93AF93BF93EF9372
:100E1000FF938091E10082FF07C08091E20082FF92
:100E200003C08BEF8093E1008091E10080FF29C037
:100E30008091E20080FF25C081E0809305018FEE64
:100E40008093E10080910A0190910B018062909360
:100E50000B0180930A018EEF8093E1008091E20004
:100E600080618093E2008091E2008F7D8093E200B8
:100E70008091D80080628093D80089B58D7F89BD2C
:100E800019BC8091E10084FF72C08091E20084FF70
:100E90006EC009B400FC05C082E089BD09B400FE43
:100EA000FDCF8091D8008F7D8093D8008FEE809306
:100EB000E10080910501882309F459C08091E20086
:100EC00080628093E2008091E20088608093E2007B
:100ED0009FEE02C09093E1008091E10084FDFACF83
:100EE00082E06BDF8091E10082FD08C08091E1002B
:100EF00085FD04C08091E10083FF1CC08091E20069
:100F00008F7E8093E20080910A0190910B018064B2
:100F100090930B0180930A018091E200816080939D
:100F2000E2008091E20080628093E2008091E20022
:100F300088601BC08091E10084FD4EC08091FB0061
:100F40008F7D8093FB008091FB0080688093FB0085
:100F50008091FB008F7B8093FB008091FB008F735F
:100F60008093FB008091E2008F7E8093E20080916D
:100F7000E10085FF1CC08091E20085FF18C010923F
:100F800005018091E2008F7E8093E2008FED8093D7
:100F9000E1008091E2008F7D8093E20080910A0160
:100FA00090910B01806890930B0180930A018091CE
:100FB000E10083FF11C08091E20083FF0DC087EF45
:100FC0008093E100ABDA80910A0190910B0191606E
:100FD00090930B0180930A01FF91EF91BF91AF9124
:100FE0009F918F917F916F915F914F913F912F9141
:100FF0000F900FBE0F901F90189542CA089511CA06
:061000000895F894FFCFF3
:021006000018D0
:00000001FF
