:1000000090C00000B5C00000B3C00000B1C0000047
:10001000AFC00000ADC00000ABC00000A9C0000030
:10002000A7C00000A5C00000A3C0000087C7000053
:100030009FC000009DC000009BC0000099C0000050
:1000400097C0000095C0000093C0000091C0000060
:100050008FC000001BC100008BC0000089C00000E1
:1000600087C0000085C0000083C0000081C0000080
:100070007FC000001201000200000020EB031320EB
:10008000001001020001090229000101008032096B
:1000900004000002030000000921110100012235C3
:1000A00000070581034000140705020340001410F7
:1000B000035600410049004400410053005A002A01
:1000C0000346005000470041002000440045005610
:1000D0000045004C004F0050004D0045004E0054BC
:1000E0000020004B00490054000403090406FFFFF0
:1000F0000901A10109020903150026FF00750895F1
:1001000040810209040905150026FF007508954085
:10011000910209060907150026FF0075089504B12C
:1001200002C011241FBECFEFD2E0DEBFCDBF80E002
:1001300090E020E80FB6F89420936100809361006E
:100140000FBE81E011E0A0E0B1E0EEE7F1E102C016
:1001500005900D92A830B107D9F711E0A8E0B1E001
:1001600001C01D92A136B107E1F73DD00C94BD0846
:1001700047CFFB01DC0102C001900D92415050407D
:10018000D8F708958FB7F89497EF94BF98E10FB61A
:10019000F89490936000109260000FBE87FF01C03A
:1001A00078940895982F3FB7F89487EF84BF93FD14
:1001B00002C028E001C028E29770292B88E190E076
:1001C0000FB6F894A895809360000FBE209360004E
:1001D00037FF01C078940895CCD776D1FDCFCBD727
:1001E00080C1FDDFF9CFDF93CF9300D0CDB7DEB76D
:1001F00081E090E09A83898384B1806584B985B178
:10020000806585B985B18F7A85B9E3E6F0E08081B4
:100210008E7F8083B7DF7AD11092610110926201E4
:10022000109263011092640180E090E020E80FB624
:10023000F89420936100809361000FBED2DF80E0CC
:1002400090E00F900F90CF91DF91089584B18F606F
:1002500084B9289A89E58CBD0895DC01289820E0AE
:1002600030E00FC0FD01E20FF31F80818EBD0DB4A1
:1002700007FEFDCF8EB5FA01E20FF31F80832F5FDB
:100280003F4F2617370770F3289A08951F920F9251
:100290000FB60F9211242F938F939F9383E890E0D2
:1002A00090938500809384008091080190910901CA
:1002B0008453984050F4809108019091090101966F
:1002C000909309018093080104C0109209011092D3
:1002D00008019F918F912F910F900FBE0F901F904B
:1002E0001895809104018823D1F180910A019091A1
:1002F0000B018C509E4F8453984068F480910A0102
:1003000090910B0120910801309109018C509E4F72
:1003100028173907C0F480910A0190910B012091B0
:100320000801309109018054964082179307B8F470
:10033000209108013091090180910A0190910B01EF
:100340002817390760F485B190E4892785B9809131
:1003500008019091090190930B0180930A0108957F
:100360009C01462F81E08093E9008091E80085FDA3
:1003700002C080E0089581E0B9015FD18091E8007A
:100380008E7F8093E8008091E8008F778093E8006B
:1003900081E008951F93DF93CF9300D000D0CDB7B5
:1003A000DEB79C01462F82E08093E9008091E8004F
:1003B000182F147082FF0DC082E0B9014ED18091D8
:1003C000E8008B7F8093E8008091E8008F7780932E
:1003D000E80080910E018823F9F08091E0008160AF
:1003E0008093E00019821A821B821C820BC08981D3
:1003F0009A81AB81BC810196A11DB11D89839A832D
:10040000AB83BC8389819A81AB81BC818057914148
:10041000A140B04060F395D0812F0F900F900F90C6
:100420000F90CF91DF911F910895EF92FF920F935C
:100430001F93DF93CF93CDB7DEB7C054D0400FB634
:10044000F894DEBF0FBECDBF84E1E82E81E0F82E28
:1004500080911401823009F18C3019F0813011F54E
:100460000BC085B190E1892785B9809108019091F1
:1004700009018093150116C060911501C70102960C
:1004800070E08E010F5F1F4FA801E7DE409115015C
:10049000C701B80150E06DDE05C080910401809570
:1004A0008093040184E191E060E45ADFC05CDF4F97
:1004B0000FB6F894DEBF0FBECDBFCF91DF911F9175
:1004C0000F91FF90EF9008950CDF80915B018823DE
:1004D00039F084E191E060E45DDF882309F0A5CF85
:1004E000089584B1806584B985B1806585B985B189
:1004F000806585B9ABDE83E886BD83E085BDEEE629
:10050000F0E080818160808378940895809161011A
:1005100090916201A0916301B091640185559A4A5E
:10052000AA4AB54569F410926101109262011092D5
:10053000630110926401E0910501F09106010995B3
:10054000089585E59AEAAAEAB5E58093610190935A
:100550006201A0936301B093640185E023DEFFCFC5
:10056000E8EDF0E080818F778083808180688083F0
:1005700008958091D80080628093D80082E089BD80
:1005800009B400FEFDCF8091D8008F7D8093D80004
:100590008091E0008E7F8093E0008091E0008B7F6F
:1005A0008093E0006AD08091E20081608093E20055
:1005B0008091E20088608093E200789408958091B1
:1005C0000C01882321F481E080930C01D2DF80911B
:1005D00012019091130190FF10C08091120190912F
:1005E00013019E7F909313018093120181E0809309
:1005F000EA001092EA0010925B011092E9008091EB
:10060000E80083FF01C06CC208959091EB009160F7
:100610009093EB008093EC008091ED008270862B2C
:100620008093ED008091ED0082608093ED008091D9
:10063000EE00881F8827881F0895FB018093E9003A
:1006400004C081918093F10041508091E80085FFC2
:1006500002C04423B1F7842F0895FB018093E90081
:1006600004C08091F100819341508091E80085FFA2
:1006700002C04423B1F7842F08951092E9008091BD
:10068000EB0080FF02C080E008951092E9008091A5
:10069000EB0081608093EB0082E08093EC0080911E
:1006A000ED00827080628093ED008091ED008260A9
:1006B0008093ED008091EE00881F8827881F0895A1
:1006C00080E00895892B19F581E08093E9008091FD
:1006D000EB0080618093EB0092E09093EA0010922F
:1006E000EA008091EB0088608093EB009093E90032
:1006F0008091EB0080618093EB0084E08093EA00BE
:100700001092EA008091EB0088608093EB000895DE
:100710008330F1F4613059F0613018F06230C1F487
:100720000CC084E080935C0189EE90E00BC080E116
:1007300080935C018FEA90E005C08AE280935C01BF
:100740008FEB90E090935E0180935D0181E00895CE
:1007500080E00895DF93CF9300D000D0CDB7DEB70F
:100760008091F1008B838091F1008C8385E38093ED
:100770005C018DEE90E090935E0180935D0180912D
:10078000F10089838091F1008A838091E800877F5E
:100790008093E80089819A818633910528F0409101
:1007A0005C012DEE30E01CC080935C01F8CF80919D
:1007B000E80080FFFCCFF90190E00AC0542F5150AF
:1007C000903249F09F5F84918093F1003196452FDC
:1007D0009F01442399F78091E8008E7F8093E80081
:1007E000442359F08091E80082FFE1CF30935E010D
:1007F00020935D0140935C0106C030935E0120931D
:100800005D0110925C018091E80082FFFCCF809135
:10081000E8008B7F8093E8008091E8008F778093D9
:10082000E8000F900F900F900F90CF91DF910895F7
:100830008091E800877F8093E8008091E8008E7FB8
:100840008093E8008091E80082FFFCCF8091E8006F
:100850008B7F8093E8008091E8008F778093E80099
:100860008091E8008E7F8093E8000895DF93CF9316
:1008700000D000D0CDB7DEB78091F1008B8380919E
:10088000F1008C838091F10089838091F1008A834B
:100890008091E800877F8093E80089819A81892B85
:1008A00049F080910F018093F1008091E8008E7FE4
:1008B0008093E8008091E80082FFFCCF8091E800FF
:1008C0008B7F8093E8008091E8008F778093E80029
:1008D0000F900F900F900F90CF91DF91089580911E
:1008E000E800877F8093E8008091E8008E7F809306
:1008F000E8008091E80082FFFCCF8091F10085350F
:1009000079F48091F1008A3A59F48091F1008535AB
:1009100039F48091F1008A3A19F481E080930E0154
:100920008091E8008B7F8093E8008091E8008F77CA
:100930008093E8008091E8008E7F8093E8008091AA
:10094000E80080FFFCCF0895DF93CF9300D000D064
:10095000CDB7DEB78091F1008B838091F1008C835D
:1009600089E080935C0188E990E090935E01809338
:100970005D018091F10089838091F1008A838091EB
:10098000E800877F8093E80089819A818A30910509
:1009900028F040915C0128E930E01CC080935C01A4
:1009A000F8CF8091E80080FFFCCFF90190E00AC009
:1009B000542F5150903249F09F5F84918093F10001
:1009C0003196452F9F01442399F78091E8008E7F4F
:1009D0008093E800442359F08091E80082FFE1CF42
:1009E00030935E0120935D0140935C0106C030931B
:1009F0005E0120935D0110925C018091E80082FF0E
:100A0000FCCF8091E8008B7F8093E8008091E80024
:100A10008F778093E8000F900F900F900F90CF91F9
:100A2000DF910895DF93CF9300D0CDB7DEB720914B
:100A3000F1009091F100813859F46630C1F591329E
:100A400019F09232A1F502C07FDF2FC083DE2DC0E6
:100A5000813229F5693019F06A3049F509C09230C0
:100A600019F0933021F502C0E3DE1FC038DF1DC04E
:100A70008091F10089838091F1008A838091E80060
:100A8000877F8093E80090930F018091E8008E7F2C
:100A90008093E8008091E80080FFFCCF06C0813A97
:100AA00031F4623021F4822FE1DE81E001C080E088
:100AB0000F900F90CF91DF9108950F931F9309EE40
:100AC00010E081E0F801808381EC60E39EDD82E04C
:100AD000F801808380EC60E398DD1F910F91089509
:100AE0000F931F93DF93CF9300D0CDB7DEB78091E4
:100AF000E8008B7F8093E8001091F1000091F100F5
:100B00000630F9F0073068F4013009F413C1013000
:100B100008F480C1033009F441C1053009F0F5C182
:100B2000D2C0093009F4EFC00A3020F4083009F0CF
:100B3000ECC1A4C00A3009F4A3C10B3009F0E5C12F
:100B4000C2C1103809F0E1C16091F1008091F1005B
:100B5000813019F0823089F406C082E180935C0113
:100B600084E790E005C089E280935C0186E890E02C
:100B700090935E0180935D0104C0CADD882309F46F
:100B8000C4C18091F1008091F1008091F1008983CE
:100B90008091F1008A838091E800877F8093E8004C
:100BA00029813A8180915C0190E08217930730F4AB
:100BB0008F719070892B21F461E003C020935C0158
:100BC00060E08091E8008F7E8093E80020915D01D5
:100BD00030915E0140915C0122C08091E80084FF69
:100BE00003C0F90190E00FC08091E80080FFF5CFCD
:100BF000F8CF542F5150903249F09F5F84918093E9
:100C0000F1003196452F9F01442399F78091E80028
:100C100084FD12C08091E8008E7F8093E800442319
:100C200039F420935D0130935E0110925C010AC09B
:100C30008091E80084FFD8CF20935D0130935E015E
:100C400040935C01613069F48091E80084FD09C043
:100C50008091E80080FFFCCF8091E8008E7F809338
:100C6000E8008091E80084FFFCCF8091E8008F7E4F
:100C70008093E8008091E8008B7F22C0103809F053
:100C800044C18091E800877F8093E80080915B01F8
:100C90008093F1008091E8008E7F8093E80080913E
:100CA000E8008F778093E8008091E80082FFFCCF16
:100CB0008091E8008B7F8093E8008091E8008F7737
:100CC0008093E80034C1112309F01FC19091F10015
:100CD0008091E3009F778078982B9093E300809138
:100CE000E800877F8093E8008091E8008E7F809302
:100CF000E8008091E80080FFFCCF8091E3008068ED
:100D00008093E30014C1112309F0FFC09091F1001A
:100D1000923008F0FAC08091E800877F8093E80065
:100D200090935B018091E8008E7F8093E800892F8B
:100D3000C4DEFDC01123C1F1123009F0E6C080917C
:100D4000F1009091F100882309F0DFC0E091F100FB
:100D5000EF77E093E9008091EB0080FF43C0EE2342
:100D6000B1F08091EB0080618093EB0081E090E036
:100D70000E2E02C0880F991F0A94E2F78093EA00B2
:100D80001092EA008091EB0088608093EB00109253
:100D9000E900F0E0EC5AFE4F108233C0112321F03D
:100DA000123009F0B2C003C08091F100AEC0809152
:100DB000F1009091F100882309F0A7C0E091F100C3
:100DC000EF7751F48091EB0080628093EB0080918B
:100DD000E800877F8093E800E093E9008091EB00D2
:100DE00080FD03C01092E90090C08091EB0080620A
:100DF0008093EB001092E900F0E0EC5AFE4F81E0A6
:100E000080838091E800877F8093E8008091E800EC
:100E10008E7F56CF8091F1008091F100E091F1003A
:100E2000113869F0123899F0103809F06EC08091CD
:100E3000E800877F8093E8008091110113C08091C2
:100E4000E800877F8093E8001092F1000DC0809148
:100E5000E800877F8093E800F0E0EF77F070EC5ACD
:100E6000FE4F80818093F1001092F1008091E800A4
:100E70008E7F8093E8008091E80082FFFCCF18CF3E
:100E8000113809F042C08091F1008091F1009091F9
:100E9000F10099839091F1009A838823B1F58091B4
:100EA000E800877F8093E80089819A8109DC80933C
:100EB000F1008091E8008E7F8093E8008091E80047
:100EC00082FFFCCFF5CE113001F56091F1008091E9
:100ED000F1009091F10099839091F1009A83882319
:100EE000A1F48091E800877F8093E80089819A814E
:100EF000E9DB1092E9008091E8008E7F8093E800A2
:100F00008091E80080FFFCCF12C0812F602F8ADD26
:100F1000882369F48091EB0080628093EB008091DC
:100F2000E800877F8093E80081E0809354010F9070
:100F30000F90CF91DF911F910F9108951F920F9203
:100F40000FB60F9211242F933F934F935F936F939C
:100F50007F938F939F93AF93BF93EF93FF93809172
:100F6000E10082FF07C08091E20082FF03C08BEFA7
:100F70008093E1008091E10080FF29C08091E20030
:100F800080FF25C081E080930D018FEE8093E1000A
:100F900080911201909113018062909313018093CC
:100FA00012018EEF8093E1008091E20080618093D6
:100FB000E2008091E2008F7D8093E2008091D80072
:100FC00080628093D80089B58D7F89BD19BC8091DE
:100FD000E10084FF88C08091E20084FF84C009B4EE
:100FE00000FC05C082E089BD09B400FEFDCF809100
:100FF000D8008F7D8093D8008FEE8093E1008091A0
:101000000D01882309F46FC08091E2008062809313
:10101000E2008091E20088608093E2009FEE02C0CF
:101020009093E1008091E10084FDFACF22E01092DC
:10103000600110925F0109C080915F019091600191
:1010400001969093600180935F0180915F01909180
:101050006001845F914080F3215049F78091E10065
:1010600082FD08C08091E10085FD04C08091E1000F
:1010700083FF1CC08091E2008F7E8093E20080910C
:1010800012019091130180649093130180931201D7
:101090008091E20081608093E2008091E2008062B2
:1010A0008093E2008091E20088601BC08091E100A3
:1010B00084FD4EC08091FB008F7D8093FB0080916A
:1010C000FB0080688093FB008091FB008F7B809306
:1010D000FB008091FB008F738093FB008091E20006
:1010E0008F7E8093E2008091E10085FF1CC080919B
:1010F000E20085FF18C010920D018091E2008F7E02
:101100008093E2008FED8093E1008091E2008F7D7B
:101110008093E20080911201909113018068909376
:101120001301809312018091E10083FF11C080912F
:10113000E20083FF0DC087EF8093E1009EDA80918B
:101140001201909113019160909313018093120109
:10115000FF91EF91BF91AF919F918F917F916F918F
:101160005F914F913F912F910F900FBE0F901F9065
:0E117000189525CA0895F4C90895F894FFCF84
:08117E0001AC02AB01001800F6
:00000001FF
