:1000000010C01DC01CC01BC01AC019C018C017C02A
:1000100016C015C014C013C012C011C010C00FC04C
:100020000EC011241FBECFEDCDBF10E0A0E6B0E0A2
:1000300001C01D92A236B107E1F761D114C2E0CF31
:100040001EBCEBE2F0E08081816080831DBC1CBCA3
:100050001FBC0895EAE3F0E080818E658083EBE3C6
:10006000F0E08081806280838081826080838081F3
:100070008460808308959C01EBE3F0E080818F7EB3
:1000800080838081877F80839FE080818F7E8083D3
:10009000332324F480818064808303C080818F7B3C
:1000A0008083808180618083992321F0220F331F18
:1000B0009150EBCFEBE3F0E080818F7E80838081F5
:1000C000886080830895982FEBE3F0E080818F7E35
:1000D00080838081877F808380818F7B8083808104
:1000E00080618083CD991AC0A9E3B0E080818F7EC2
:1000F0008083808180648083808188608083808128
:100100008F7E80838081877F808380818F7B8083C7
:100110008081806180838C9185FFE8CFEBE3F0E004
:1001200080818F7E808380818064808380818860ED
:100130008083892F90E0986B9EDF08950F931F9323
:10014000082F192F8AEABFDF8AEABDDF8AEABBDF00
:100150008DE2B9DF84EDB7DF812FB5DF802FB3DF0C
:100160001F910F910895DF92EF92FF920F931F93CB
:10017000D82E8B0188E392E87EDF0F2EFAEFEF2E68
:10018000FF24F02DC7010197F1F79D2D9295990F4E
:10019000907E80E01F71802B912BD0DFC7010197EB
:1001A000F1F788E092E867DF1F910F91FF90EF90E1
:1001B000DF90089580EE90EC5EDF0000000000000C
:1001C0008FED90E858DF80E19EEA55DF82E096EC03
:1001D00052DF80E294E94FDF8CEA92EC4CDF83EF50
:1001E0009AEC49DF8BE994EC46DF80ED98E943DF38
:1001F00088E092E840DF0895CF93DF93EBE3F0E0EF
:1002000080818F7E808380818F7B80838081877FC8
:10021000808390E080818061808380818F7E808375
:100220009F5F9031B9F7C0E0D0E090E0A9E3B0E083
:10023000EBE3F0E0CC0FDD1F8C9185FDC160808188
:100240008061808380818F7E80839F5F903191F772
:10025000EBE3F0E080818860808380E89AEC0BDF3C
:1002600083EF9AEC08DF8C2F9D2FDF91CF910895BB
:10027000782FEBE3F0E080818B7F80838081826048
:10028000808328E833E14AEF50E0CA010197F1F793
:1002900021503040D1F77723F9F060E0EBE3F0E054
:1002A000A4ECB9E04AEF50E080818D7F80839D010E
:1002B000CA010197F1F721503040D1F78081826067
:1002C00080839D01CA010197F1F721503040D1F799
:1002D0006F5F671748F30AC020E137E24AEF50E04A
:1002E000CA010197F1F721503040D1F7EBE3F0E07C
:1002F00080818260808380818460808308952F92D2
:100300003F924F925F926F927F929F92AF92BF9275
:10031000CF92DF92EF92FF920F931F93CF93DF93D1
:1003200088EA91E60197F1F795DE44DF89DE84E003
:100330009FDF80EF9AEC9FDE83EF9AEC9CDE88EDE6
:1003400092E899DEC9E3D0E00F2EFEE4AF2EBB2485
:10035000F02D9924689491F80F2EFAE3CF2EDD2426
:10036000F02D0BE310E00F2EFAEF6F2E7724F02D17
:100370000F2EFBE2EF2EFF24F02D0F2EFCE44F2E6C
:100380005524F02D0F2EF0E22F2EFEE43F2EF02DFF
:1003900088818823ECF3F50190822EDF8455944107
:1003A00009F044C088E092E866DEF6018081816051
:1003B0008083F80180818E7F8083C3010197F1F7EC
:1003C000808181608083F60180818E7F8083F80147
:1003D00080818D7F808304C0F701808180FD04C00F
:1003E000888180FDF9CF2DC0F201808191819695A1
:1003F00087959695879596958795909361008093BC
:1004000060000DC0F701808180FFFCCFC101019722
:10041000F1F7609160007091610084E0A4DEF80162
:1004200080818260808380818460808309DE80EFA8
:100430009AEC21DE83EF9AEC1EDE88ED92E81BDE5B
:10044000A7CFF201808191819695879596958795A2
:10045000969587959093610080936000F801808164
:0A0460008B7F8083CFCFF894FFCF8D
:00000001FF
