:1000000010C015C014C013C012C011C010C00FC062
:100010000EC00DC00CC00BC00AC009C008C007C08C
:1000200006C011241FBECFEDCDBFE7D094C1E8CFED
:10003000FC014F70842F870F860F8295807F842B61
:1000400080837183628308951EBC589A1DBC1CBCBA
:100050001FBC0895C298BA9A8AB388658ABBDD9A94
:100060008AB386608ABBC298D99ADA9A0895DB98D7
:1000700020E109C0DC9897FF02C0DE9A01C0DE983B
:10008000DC9A880F991F2150A8F7DC98DB9A089515
:1000900080EE90ECECDF88EE93E02AEF30E0F9019F
:1000A0003197F1F70197D9F780EE90ECE0DF88EE19
:1000B00093E02AEF30E0F9013197F1F70197D9F792
:1000C0008FED90E8D4DF80E293EAD1DF88E096EC10
:1000D000CEDF80E294E9CBDF8CEA92ECC8DF83EFDD
:1000E0009AECC5DF8BE994ECC2DF80ED98E9BFDFC5
:1000F00088E092E8BCDF0895982FDC98DB98DE98C2
:10010000DC9A89B3DC98DE9ADB9A85FFF6CF892FDB
:1001100090E0986BACDF08950F931F9390619C0162
:1001200040E004C0420F41703695279521153105F6
:10013000C9F7142F17951127179500E0082B192BD5
:100140008AEADADF8AEAD8DF8AEAD6DF8DE2D4DF0C
:1001500084EDD2DF812FD0DF802FCEDF1F910F9172
:100160000895DC98DE98DB9880E0DC9ADC988F5F5D
:100170008031D9F720E030E080E0220F331FCD99A5
:100180002160DC9ADC988F5F8031B9F7DB9AC90176
:100190000895DA98D99A28E833E14AEF50E0FA0155
:1001A0003197F1F721503040D1F790E04AEF50E01D
:1001B00013C0D99824EC39E0FA013197F1F72150B6
:1001C0003040D1F7D99A24EC39E0FA013197F1F7B0
:1001D00021503040D1F79F5F981758F3882351F48E
:1001E000D99880E197E22AEF30E0F9013197F1F7F1
:1001F0000197D9F7D99ADA9A0895AF92BF92CF9220
:10020000DF92EF92FF920F931F93DF93CF9300D073
:100210000F92CDB7DEB788EE93E02AEF30E0F90118
:100220003197F1F70197D9F715DF32DF1EBC589AE5
:100230001DBC1CBC1FBC81E0ACDF81EF9AEC17DF5A
:1002400083EF9AEC14DF88ED92E811DF8ADF02E099
:10025000A02E1EEEC12E12E0D12E04EC19E0B8EE55
:10026000EB2EB3E0FB2EBB24B394CF99FECFAEBCF4
:1002700078DFFC01FF779F0140E004C0420F41702E
:100280003695279521153105C9F7892F881F8827AD
:10029000881F481709F046C0309709F443C0E45559
:1002A000F44109F03FC0C29AC6010197F1F788E016
:1002B00092E8DDDED09AD898C8010197F1F7D89A74
:1002C000D098D998198204C0589B02C0B98202C044
:1002D000C899FACF8CB59DB574E0969587957A95B7
:1002E000E1F79B838A83C29889818823C9F4DA98CD
:1002F0008981882311F4589BFECFC8010197F1F73B
:1003000088E392E8B4DEC7010197F1F78A819B8107
:1003100003DFD998C8010197F1F788E092E8A7DEDA
:10032000D99ADA9A81EF9AECA2DE83EF9AEC9FDEFB
:1003300088ED92E89CDE1EBC589A1DBC1CBC1FBCFC
:1003400094CF20E004C0280F2170969587950097E0
:0A035000D1F7822F0895F894FFCF33
:00000001FF
