:1000000010C015C014C013C012C011C010C00FC062
:100010000EC00DC00CC00BC00AC009C008C007C08C
:1000200006C011241FBECFEDCDBFE5D08BC1E8CFF8
:10003000FC014F70842F870F860F8295807F842B61
:1000400080837183628308951EBC589A1DBC1CBCBA
:100050001FBC0895C298BA9A8AB388658ABBDD9A94
:100060008AB386608ABBC298D99ADA9A0895DB98D7
:1000700020E109C0DC9897FF02C0DE9A01C0DE983B
:10008000DC9A880F991F2150A8F7DC98DB9A089515
:1000900080EE90ECECDF88EE93E02AEF30E0F9019F
:1000A0003197F1F70197D9F780EE90ECE0DF88EE19
:1000B00093E02AEF30E0F9013197F1F70197D9F792
:1000C0008FED90E8D4DF80E293EAD1DF82E096EC16
:1000D000CEDF80E294E9CBDF8CEA92ECC8DF83E7E5
:1000E0009AECC5DF8BE994ECC2DF82ED98E9BFDFC3
:1000F00088E092E8BCDF0895982FDC98DB98DE98C2
:10010000DC9A89B3DC98DE9ADB9A85FFF6CF892FDB
:1001100090E0986BACDF08950F931F939C0140E033
:1001200004C0420F41703695279521153105C9F756
:10013000142F17951127179500E0082B192B8AEA21
:10014000DBDF8AEAD9DF8AEAD7DF8DE2D5DF84ED0B
:10015000D3DF812FD1DF802FCFDF1F910F91089543
:10016000DC98DE98DB9880E0DC9ADC988F5F803149
:10017000D9F720E030E080E0220F331FCD992160D5
:10018000DC9ADC988F5F8031B9F7DB9AC90108955A
:10019000DA98D99A28E833E14AEF50E0FA0131972A
:1001A000F1F721503040D1F790E04AEF50E013C012
:1001B000D99824EC39E0FA013197F1F72150304019
:1001C000D1F7D99A24EC39E0FA013197F1F72150AF
:1001D0003040D1F79F5F981758F3882349F480E1A6
:1001E00097E22AEF30E0F9013197F1F70197D9F75B
:1001F000D99ADA9A0895AF92BF92CF92DF92EF9296
:10020000FF920F931F93DF93CF9300D00F92CDB740
:10021000DEB788EE93E02AEF30E0F9013197F1F78D
:100220000197D9F717DF34DF1EBC589A1DBC1CBCE0
:100230001FBC80E0ADDF81EF9AEC19DF83EF9AEC11
:1002400016DF88ED92E813DF8BDFC29A02E0A02E62
:1002500014ECC12E19E0D12EBB24B394BEEEEB2ECC
:10026000B2E0FB2E0AEF10E0CF99FECFAEBC78DFF4
:10027000FC01FF779F0140E004C0420F41703695BA
:10028000279521153105C9F7892F881F8827881FD1
:10029000481709F03EC0309709F43BC0E455F441DB
:1002A00009F037C0D998D09AD898C6010197F1F7CC
:1002B000D89AD098198204C0589B02C0B98202C053
:1002C000C899FACF8CB59DB574E0969587957A95C7
:1002D000E1F79B838A8389818823C9F4DA9889812D
:1002E000882311F4589BFECF8B2D8A95F1F788E374
:1002F00092E8BDDEC7010197F1F78A819B810CDF8F
:10030000D998C8010197F1F788E092E8B0DED99A50
:10031000DA9A81EF9AECABDE83EF9AECA8DE88EDF7
:1003200092E8A5DE1EBC589A1DBC1CBC1FBC9CCF0D
:1003300020E004C0280F2170969587950097D1F78B
:08034000822F0895F894FFCF0D
:00000001FF
