:1000000010C01DC01CC01BC01AC019C018C017C02A
:1000100016C015C014C013C012C011C010C00FC04C
:100020000EC011241FBECFEDCDBF10E0A0E6B0E0A2
:1000300001C01D92A236B107E1F77AD11CC2E0CF10
:100040001EBCEBE2F0E08081816080831DBC1CBCA3
:100050001FBC0895EAE3F0E080818E658083EBE3C6
:10006000F0E08081806280838081826080838081F3
:100070008460808308959C01EBE3F0E080818F7EB3
:1000800080838081877F80839FE080818F7E8083D3
:10009000332324F480818064808303C080818F7B3C
:1000A0008083808180618083992321F0220F331F18
:1000B0009150EBCFEBE3F0E080818F7E80838081F5
:1000C000886080830895982FEBE3F0E080818F7E35
:1000D00080838081877F808380818F7B8083808104
:1000E00080618083CD991AC0A9E3B0E080818F7EC2
:1000F0008083808180648083808188608083808128
:100100008F7E80838081877F808380818F7B8083C7
:100110008081806180838C9185FFE8CFEBE3F0E004
:1001200080818F7E808380818064808380818860ED
:100130008083892F90E0986B9EDF08950F931F9323
:10014000082F192F8AEABFDF8AEABDDF8AEABBDF00
:100150008DE2B9DF84EDB7DF812FB5DF802FB3DF0C
:100160001F910F910895CF92DF92EF92FF920F931C
:100170001F93082F7B018FEF97E0E822F92280E0A0
:1001800090E8E82AF92A80ED98E975DF88E392E89B
:1001900072DF0F2EF8EACF2EF1E6DF2EF02DC6012A
:1001A0000197F1F710E007701070102F00271295DB
:1001B000107FC701802B912BC1DFC6010197F1F79A
:1001C00088ED92E858DF1F910F91FF90EF90DF903C
:1001D000CF9008958FED90E84EDF80EE90EC4BDFEE
:1001E000000020ED37E04AEF50E0CA010197F1F737
:1001F00021503040D1F7000088ED92E83CDF80E1EB
:100200009EEA39DF89E296EC36DF80E294E933DF5B
:100210008CEA92EC30DF83EF9AEC2DDF8BE994ECE3
:100220002ADF80ED98E927DF0895CF93DF93EBE392
:10023000F0E080818F7E808380818F7B80838081CE
:10024000877F808390E080818061808380818F7E42
:1002500080839F5F9031B9F7C0E0D0E090E0A9E3E0
:10026000B0E0EBE3F0E0CC0FDD1F8C9185FDC160C9
:1002700080818061808380818F7E80839F5F9031C9
:1002800091F7EBE3F0E080818860808380E89AEC6E
:10029000F2DE83EF9AECEFDE8C2F9D2FDF91CF9172
:1002A0000895782FEBE3F0E080818B7F808380815D
:1002B0008260808328E833E14AEF50E0CA01019769
:1002C000F1F721503040D1F77723F9F060E0EBE30C
:1002D000F0E0A8E8B3E14AEF50E080818D7F8083B1
:1002E0009D01CA010197F1F721503040D1F780817B
:1002F000826080839D01CA010197F1F7215030404F
:10030000D1F76F5F671748F30AC020E137E24AEF81
:1003100050E0CA010197F1F721503040D1F7EBE3EB
:10032000F0E0808182608083808184608083089592
:100330004F925F926F927F929F92AF92BF92CF92B5
:10034000DF92EF92FF920F931F93CF93DF9380ED95
:1003500097E02AEF30E0F9013197F1F70197D9F7EB
:1003600079DE38DF6DDE81E09CDF80EF9AEC83DEA2
:1003700083EF9AEC80DE88ED92E87DDE09E310E001
:100380000F2EFEE4AF2EBB24F02D9924689491F833
:100390000F2EFAE3EF2EFF24F02DCBE3D0E00F2E4B
:1003A000FAEF6F2E7724F02D0F2EFBE2CF2EDD24F7
:1003B000F02D0F2EFCE44F2E5524F02DF8018081F6
:1003C0008823E4F3F501908230DF8455944191F560
:1003D000F70180818160808388818E7F8883C3015B
:1003E0000197F1F788818160888380818E7F808387
:1003F00088818D7F888304C0F601808180FD05C0DF
:10040000F801808180FDF8CF1DC0F20180819181CB
:1004100096958795929582958F7089279F708927E9
:1004200090936100809360008881826088838881D6
:100430008460888305DE80EF9AEC1DDE83EF9AEC02
:100440001ADEBCCFF20180819181969587959295B5
:1004500082958F7089279F70892790936100809380
:10046000600088818B7F888360916000709161005B
:0A04700081E079DED9CFF894FFCFC8
:00000001FF
