:1000000010C01DC01CC01BC01AC019C018C017C02A
:1000100016C015C014C013C012C011C010C00FC04C
:100020000EC011241FBECFEDCDBF10E0A0E6B0E0A2
:1000300001C01D92A436B107E1F703D1AAC1E0CFF8
:100040008AB38E658ABBDD9A0895DC98DB9820E13F
:1000500009C0DC9897FF02C0DE9A01C0DE98DC9AE6
:10006000880F991F2150A8F7DC98DB9A089582EA3F
:1000700087B913B887E886B90895982FDC98DB987C
:10008000DE98DC9A89B3DC98DE9ADB9A85FFF6CF9E
:10009000892F90E0986BD9DF08952FE00BC0CF999E
:1000A000FECFCF9BFECF97FF02C0DE9A01C0DE9845
:1000B000880F991F215098F708950F931F938C0173
:1000C0008AEADBDF8AEAD9DF8AEAD7DF8DE2D5DF89
:1000D00084EDD3DF812FD1DF802FCFDF1F910F91F0
:1000E00008958FED90E8B1DF80EE90ECAEDF000078
:1000F00000000000000088ED92E8A7DF80E19EEAA2
:10010000A4DF89E296ECA1DF80E294E99EDF8CEA2D
:1001100092EC9BDF83EF9AEC98DF8BE994EC95DF10
:1001200080ED98E992DF0895CF93DF93DC98DE9815
:10013000DB9880E090E0DC9ADC98019680319105B4
:10014000D1F780E090E0C0E0D0E0CC0FDD1FCD998A
:10015000C160DC9ADC98019680319105B1F7DB9A99
:1001600080E89AEC72DF83EF9AEC6FDFCE01DF91CB
:10017000CF910895CF92DF92EF92FF920F931F934A
:10018000E62E082F10E003701070102F0027129534
:10019000110F107E10685770440F551F042B152B3C
:1001A00088E392E852DF70E2C72E7EE4D72EC601C4
:1001B0000197F1F7FF2481E0E822FF24FE2CEE24D2
:1001C000F29460EFF622C8018E299F2976DFC601DE
:1001D0000197F1F788ED92E838DF1F910F91FF90BA
:1001E000EF90DF90CF900895369A3699FECF84B184
:1001F00095B19C0140E050E08C52914080F4CA01DE
:10020000B90122E830E040E050E07CD0655A7A48FD
:10021000804090402EE030E040E050E00FC0CA0146
:10022000B90128E532E040E050E06CD0615A7A47ED
:100230008240904026E430E040E050E088D0C901A0
:100240000895DF92EF92FF920F931F93CF93DF9366
:100250008AB38E658ABBDD9A44DF82EA87B913B818
:1002600087E886B988ED92E8F0DE80E197E228EC35
:1002700030E0F9013197F1F70197D9F713E008EC75
:10028000E02EF12CB2E0DB2EC0E1D7E205E8CF99F9
:1002900033C04ADF8455944179F5D09AD898C70184
:1002A0000197F1F7D89AD098D9981DBC1CBC1FBCF7
:1002B000DEBCC899FECF8CB59DB5A4E09695879518
:1002C000AA95E1F790936100809360001EBC8CDFDB
:1002D000AC01812F64E12FD0992319F480E061E013
:1002E00049DF1F5F409160005091610080E060E055
:1002F00041DFCE010197F1F7802F8A95F1F7D99A66
:10030000DA9AC5CFFF27EE27BB27AA2760FF04C0D4
:10031000A20FB31FE41FF51F220F331F441F551FE9
:10032000969587957795679589F70097760771F782
:10033000CF01BD010895991B79E004C0991F96175C
:1003400008F0961B881F7A95C9F780950895A1E259
:100350001A2EAA1BBB1BFD010DC0AA1FBB1FEE1F3F
:10036000FF1FA217B307E407F50720F0A21BB30B8A
:10037000E40BF50B661F771F881F991F1A9469F706
:1003800060957095809590959B01AC01BD01CF0162
:100390000895F894FFCFFFFFFFFFFFFFFFFFFFFF70
:1003A000FFFFFFFFFFFFFFFFFFFFFFFFFFFFFFFF5D
:1003B000FFFFFFFFFFFFFFFFFFFFFFFFFFFFFFFF4D
:1003C000FFFFFFFFFFFFFFFFFFFFFFFFFFFFFFFF3D
:1003D000FFFFFFFFFFFFFFFFFFFFFFFFFFFFFFFF2D
:00000001FF
