:1000000010C01DC01CC01BC01AC019C018C017C02A
:1000100016C015C014C013C012C011C010C00FC04C
:100020000EC011241FBECFEDCDBF10E0A0E6B0E0A2
:1000300001C01D92A436B107E1F77BD187C2E0CFA2
:10004000EAE3F0E080818E658083EBE3F0E080817D
:100050008062808308959C01EBE3F0E080818F7ED5
:1000600080838081877F80839FE080818F7E8083F3
:10007000332324F480818064808303C080818F7B5C
:100080008083808180618083992321F0220F331F38
:100090009150EBCFEBE3F0E080818F7E8083808115
:1000A00088608083089582EA87B913B887E886B9A3
:1000B0000895982FEBE3F0E080818F7E808380812C
:1000C000877F808380818F7B808380818061808334
:1000D000CD991AC0A9E3B0E080818F7E80838081B2
:1000E0008064808380818860808380818F7E80832C
:1000F0008081877F808380818F7B80838081806106
:1001000080838C9185FFE8CFEBE3F0E080818F7EE8
:100110008083808180648083808188608083892F50
:1001200090E0986B98DF08959C014EE0E9E3F0E0E1
:10013000ABE3B0E080818823ECF380818823ECF787
:10014000332324F48C9180648C9303C08C918F7B37
:100150008C93442321F0220F331F4150EBCF08959D
:100160000F931F93082F192F8AEAA3DF8AEAA1DFD2
:100170008AEA9FDF8DE29DDF84ED9BDF812F99DF8F
:10018000802F97DF1F910F9108958FED90E863DF27
:1001900080EE90EC60DF000000000000000088EDC1
:1001A00092E859DF80E19EEA56DF89E296EC53DF60
:1001B00080E294E950DF8CEA92EC4DDF83EF9AEC19
:1001C0004ADF8BE994EC47DF80ED98E944DF08953E
:1001D000CF93DF93EBE3F0E080818F7E808380819B
:1001E0008F7B80838081877F808320E030E08081E7
:1001F0008061808380818F7E80832F5F3F4F20319D
:100200003105A9F720E030E0C0E0D0E0A9E3B0E09C
:10021000EBE3F0E0CC0FDD1F8C9185FDC1608081A8
:100220008061808380818F7E80832F5F3F4F20316C
:10023000310581F7EBE3F0E080818860808380E81E
:100240009AEC09DF83EF9AEC06DF8C2F9D2FDF916C
:10025000CF910895CF92DF92EF92FF920F931F9369
:10026000E62E082F10E003701070102F0027129553
:10027000110F107E10685770440F551F042B152B5B
:1002800088E392E8E8DE0F2EF0E2CF2EFEE4DF2EC8
:10029000F02DC6010197F1F7FF2481E0E822FF2449
:1002A000FE2CEE24FF0CFF0CFF0CFF0CC8018E2966
:1002B0009F2956DFC6010197F1F788ED92E8CBDE62
:1002C0001F910F91FF90EF90DF90CF900895E6E29D
:1002D000F0E0808180648083808186FDFDCF64B101
:1002E00075B181E06C32780788F480E090E022E814
:1002F00030E040E050E0E3D0655A7A4880409040DA
:100300002EE030E040E050E0FFD010C080E090E010
:1003100028E532E040E050E0D2D0615A7A4782408E
:10032000904026E430E040E050E0EED0822F932F62
:1003300008952F923F924F925F926F927F928F9289
:100340009F92AF92BF92CF92DF92EF92FF920F9364
:100350001F93CF93DF9374DE18DFA5DE88ED92E85C
:100360007ADE20E030E0ABE3B0E040ED57E068EC4F
:1003700070E08C918D7F8C93CA01FB013197F1F76E
:100380000197D9F78C9182608C93CA01FB01319758
:10039000F1F70197D9F72F5F3F4F2330310549F728
:1003A000BB240F2EF9E3EF2EFF24F02D0F2EFAE3DE
:1003B000CF2EDD24F02D0BE310E0C8ECD0E00F2EA3
:1003C000FCE48F2E9924F02D0F2EFFE44F2E5524A0
:1003D000F02D0F2EFEE46F2E7724F02D0F2EF4E873
:1003E0002F2EF3E03F2EF02D0F2EF5E8AF2EF02D3F
:1003F000F701808188230CF457C0EADE84559441CC
:1004000009F052C0F601808181608083F80180810B
:100410008E7F8083CE010197F1F780818160808398
:10042000F60180818E7F8083F80180818D7F8083BB
:10043000F40111821082F201108222E0F301208384
:10044000F701808180FDFCCFF80180818B7F808364
:10045000F3011082F40180819181929582958F70D1
:1004600089279F7089279093610080936000910194
:10047000CE010197F1F721503040D1F728DFAC01D0
:100480008B2D64E135D0992319F483E061E0E2DE3D
:10049000B394409160005091610083E060E0DADE47
:1004A00080E197E20197F1F78A2D8A95F1F7F8013B
:1004B00080818260808380818460808399CFFF27E0
:1004C000EE27BB27AA2760FF04C0A20FB31FE41FBB
:1004D000F51F220F331F441F551F9695879577955B
:1004E000679589F70097760771F7CF01BD010895E9
:1004F000991B79E004C0991F961708F0961B881F76
:100500007A95C9F780950895A1E21A2EAA1BBB1B04
:10051000FD010DC0AA1FBB1FEE1FFF1FA217B307CF
:10052000E407F50720F0A21BB30BE40BF50B661FE5
:10053000771F881F991F1A9469F7609570958095A9
:1005400090959B01AC01BD01CF010895F894FFCFB8
:00000001FF
