:100000000C9446000C9464000C9464000C946400FE
:100010000C9464000C9464000C9464000C946400D0
:100020000C9464000C9464000C9464000C94EC0434
:100030000C9464000C9464000C9464000C946400B0
:100040000C9464000C9464000C9464000C946400A0
:100050000C9464000C9466000C9464000C9464008E
:100060000C9464000C9464000C9464000C94640080
:100070000C94640016049A03A004DC03A004680333
:100080009F02A0044A03840353047E0411241FBE6C
:10009000CFEFD2E0DEBFCDBF81E011E0A0E0B1E064
:1000A000EEE8F1E102C005900D92A03BB107D9F74F
:1000B00022E0A0EBB1E001C01D92A634B207E1F747
:1000C0000E9404020C94C5080C9400001F920F9229
:1000D0000FB60F9211242F938F939F9383E890E094
:1000E00090938500809384008091B0019091B1013C
:1000F0008433984050F48091B0019091B101019601
:100100009093B1018093B00104C01092B10110929C
:10011000B0019F918F912F910F900FBE0F901F9064
:1001200018958AB186608AB924980E942F060E9489
:10013000FD0584EF9EEC0E94E60587EF9EEC0E9491
:10014000E60581EC90EC0E94E6051092F90183E847
:1001500086BD83E085BDEEE6F0E08081816080832E
:10016000789408951F93CF93DF9300D000D0CDB73C
:10017000DEB79C0192E09093E9009091E800192F7E
:10018000147092FF0DC0462FB90182E00E948201D7
:10019000E8EEF0E080818B7F808380818F778083A1
:1001A0008091B801882349F1E0EEF0E09081916000
:1001B000908319821A821B821C8289819A81AB8169
:1001C000BC8180379141A140B105A8F449815A8191
:1001D0006B817C814F5F5F4F6F4F7F4F49835A83A5
:1001E0006B837C8349815A816B817C81403751418B
:1001F0006140710558F30E94AD01812F0F900F905F
:100200000F900F90DF91CF911F910895FC0181E035
:100210008093E9009091E800892F807295FF0EC0CD
:10022000462FBF0181E00E946601E8EEF0E0808188
:100230008E7F808380818F77808381E008951C99F1
:1002400022C00E941606843524E1920711F4599ABF
:1002500010C05A9AE9EFF1E0208120952083918324
:10026000828380914002882321F060E4CF010E94C4
:10027000060184EF9EEC0E94E60587EF9EEC0E944B
:10028000E60559985A9808950E941F0180914002EE
:10029000882329F060E489EB91E00E94B200089580
:1002A000EBEEF0E09081916090838093EC00EDEEB6
:1002B000F0E080818270682B60838081826080831F
:1002C0008091EE00881F8827881F0895CF93DF93C1
:1002D0008093E9008091E80085FF10C0442371F00D
:1002E000E62FF72FC1EFD0E0A8EEB0E08191888330
:1002F00041508C9185FF02C04111F8CF842FDF91CE
:10030000CF910895CF93DF938093E9008091E80027
:1003100085FF10C0442371F0E62FF72FC1EFD0E026
:10032000A8EEB0E08881819341508C9185FF02C096
:100330004111F8CF842FDF91CF9108951092E900F9
:100340008091EB0080FD07C01092E90060E282E03E
:100350000E945001089580E0089585E59AEAAAEA8E
:10036000B5E58093460290934702A0934802B0936C
:10037000490285E00E94EB01FFCF809146029091F7
:100380004702A0914802B091490285359A4AAA4A8B
:10039000B54569F410924602109247021092480245
:1003A00010924902E0910001F09101010995089530
:1003B0008FB7F89497EF94BF0FB6F894A8959091E3
:1003C0006000986190936000109260000FBE8823D7
:1003D0000CF4789408959FB79078F89427EF24BF91
:1003E00083FD02C028E001C028E28770822B28E14B
:1003F0000FB6F894A895209360000FBE809360001C
:10040000992309F078940895E3E6F0E080818E7FE7
:1004100080830E94D8010E94BD0110924602109272
:100420004702109248021092490290E080E80FB60D
:10043000F89480936100909361000FBE0E942D029A
:1004400080E090E008950E94C5040E949100089504
:100450000E94C8040E944401FBCF0E9423020E9414
:100460002802E8EDF0E080818F77808380818068CA
:1004700080830895E8EDF0E080818062808382E0EF
:1004800089BD09B400FEFDCFE8EDF0E080818F7DED
:100490008083E0EEF0E080818E7F808380818B7F9F
:1004A00080830E949E01E2EEF0E080818160808383
:1004B000808188608083789408958091B301811150
:1004C00005C081E08093B3010E943A028091B5019A
:1004D0009091B60190FF10C08091B5019091B60146
:1004E0009E7F9093B6018093B501EAEEF0E081E043
:1004F00080831082109240021092E9008091E800FF
:1005000083FD0E94840208950F931F93CF93DF937E
:1005100000D0CDB7DEB7E8EEF0E080818B7F80833E
:10052000E1EFF0E010810081402F50E04C305105A8
:1005300008F006C2FA01E65CFF4F0C94BF081038C1
:1005400009F0FEC1E1EFF0E060818081813019F0B7
:10055000823059F014C082E1809341028EE991E02B
:1005600090934302809342020FC089E2809341023C
:1005700085E791E0909343028093420205C00E9478
:100580009906882309F4DCC1E1EFF0E080818081E5
:100590008081898380818A83E8EEF0E08081877F93
:1005A00080838091410229813A81482F50E042178F
:1005B000530770F48F7161E009F060E0E8EEF0E05D
:1005C00080818F7E80838091410281110DC044C063
:1005D00020934102E8EEF0E080818F7E808380915D
:1005E00041028111C6C148C08091E80084FF06C065
:1005F00033C08C9184FF06C0B7C160E0A8EEB0E0C4
:1006000041EF50E08C9180FFF4CFAEC1915011F4D6
:1006100016C090E2E0914202F09143029F012F5FE9
:100620003F4F30934302209342028491FA0180832A
:10063000809141028150809341028111E7CF8C91DA
:1006400084FD0AC08C918E7F8C9380914102882317
:1006500019F08C9184FFD6CF613071F48091E8005D
:1006600084FD0AC0E8EEF0E0808180FFFDCFE8EE77
:10067000F0E080818E7F8083E8EEF0E0808184FF6F
:10068000FDCFE8EEF0E080818F7E808380818B7FDC
:10069000808374C1103809F053C1E8EEF0E0808126
:1006A000877F8083809140028093F10080818E7FDC
:1006B000808380818F778083808182FFFDCFE8EE09
:1006C000F0E080818B7F808380818F77808356C12B
:1006D000111136C19091F100E3EEF0E080819F7737
:1006E0008078892B8083E8EEF0E08081877F8083AB
:1006F00080818E7F8083808180FFFDCFE3EEF0E0FC
:100700008081806880833AC111111AC18091F10003
:10071000823008F015C1E8EEF0E09081977F908379
:100720008093400280818E7F8083809140020E946E
:10073000620624C1112319F0123021F001C1809109
:10074000F100FEC0E1EFF0E0808190818111F8C0FE
:10075000E091F100EF77E093E9008091EB0080FDFC
:1007600003C01092E900ECC0EE23B9F04BEE50E06C
:10077000DA018C9180618C9381E090E00E2E02C0B2
:10078000880F991F0A94E2F72AEE30E0D9018C9382
:100790001C92DA018C9188608C931092E900F0E051
:1007A000E75CFD4F1082E8EEF0E08081877F808378
:1007B00080818E7F8083E2C0112319F0123021F0F6
:1007C000BFC08091F100BCC0E1EFF0E0808190817A
:1007D0008111B6C0E091F100EF7751F4ABEEB0E0DB
:1007E0008C9180628C93A8EEB0E08C91877F8C9383
:1007F000E093E9008091EB0080FD03C01092E900D6
:100800009FC0ABEEB0E08C9180628C931092E900B7
:10081000F0E0E75CFD4F81E08083E8EEF0E080816E
:10082000877F808380818E7F8083A8C0E1EFF0E0A6
:1008300080818081E081113879F01238A9F0103878
:1008400009F07EC0E8EEF0E08081877F80838091B0
:10085000B4018093F10014C0E8EEF0E08081877F5E
:1008600080831092F1000CC0A8EEB0E08C91877FDD
:100870008C93EF77F0E0E75CFD4F80818093F1008F
:100880001092F100E8EEF0E080818E7F808380811D
:1008900082FFFDCFE8EEF0E080818B7F8083808156
:1008A0008F7780836BC0113809F04AC0E1EFF0E028
:1008B000808180819081998390819A83811140C049
:1008C00008EE10E0F8018081877F808389819A811A
:1008D0000E9475068093F100D8018C918E7F8C93D5
:1008E000E8EEF0E0808182FFFDCFE8EEF0E080816D
:1008F0008B7F808380818F77808340C0113001F5AA
:10090000E1EFF0E0608180819081998390819A830A
:10091000811116C008EE10E0F8018081877F808386
:1009200089819A810E9477061092E900D8018C9102
:100930008E7F8C93E8EEF0E0808180FFFDCF1EC0BB
:10094000602F812F0E948308811118C0EBEEF0E028
:10095000808180628083E8EEF0E08081877F808301
:1009600081E0809339020AC080914102811151CE09
:1009700066CE8091E80084FF40CE7ECE0F900F902F
:10098000DF91CF911F910F9108950E943102089538
:100990000E945D0208958823F1F0109245021092A2
:1009A00044022091440230914502243F314088F4B2
:1009B00020914402309145022F5F3F4F3093450212
:1009C000209344022091440230914502243F31405B
:1009D00078F3815011F708951F920F920FB60F927E
:1009E00011242F933F934F935F936F937F938F9334
:1009F0009F93AF93BF93EF93FF938091E10082FFAA
:100A000007C08091E20082FF03C08BEF8093E1007A
:100A10008091E10080FF27C08091E20080FF23C029
:100A200081E08093B201E1EEF0E08FEE808380916F
:100A3000B5019091B60180629093B6018093B501A3
:100A40008EEF8083E2EEF0E08081806180838081A0
:100A50008F7D8083E8EDF0E080818062808389B5BE
:100A60008D7F89BD19BC8091E10084FF6AC08091AF
:100A7000E20084FF66C009B400FC05C082E089BDC5
:100A800009B400FEFDCFE8EDF0E080818F7D80832A
:100A90008FEE8093E1008091B201882309F451C068
:100AA000E2EEF0E0808180628083808188608083D4
:100AB0008091E10084FF07C0E1EEF0E09FEE9083BB
:100AC000808184FDFCCF82E00E94CB048091E10014
:100AD00082FD08C08091E10085FD04C08091E100A5
:100AE00083FF18C0E2EEF0E080818F7E80838091EA
:100AF000B5019091B60180649093B6018093B501E1
:100B00008081816080838081806280838081886031
:100B1000808317C08091E10084FD47C0EBEFF0E0D7
:100B200080818F7D808380818068808380818F7BBE
:100B3000808380818F738083E2EEF0E080818F7EFE
:100B400080838091E10085FF1AC08091E20085FFDB
:100B500016C01092B201E2EEF0E080818F7E8083B9
:100B60008FED8093E10080818F7D80838091B5013E
:100B70009091B60180689093B6018093B501809101
:100B8000E10083FF12C08091E20083FF0EC087EF77
:100B90008093E1000E949E018091B5019091B60181
:100BA00091609093B6018093B501FF91EF91BF9151
:100BB000AF919F918F917F916F915F914F913F91F5
:100BC0002F910F900FBE0F901F901895CF93DF932A
:100BD00000D000D0CDB7DEB799838A83AE014D5FD8
:100BE0005F4F62E0CE0101960E943D060F900F908C
:100BF0000F900F90DF91CF91089583EF99E80E94B5
:100C0000E60580E19EEA0E94E60582E098EC0E94FB
:100C1000E6058BE996EC0E94E6058AE294EC0E94D8
:100C2000E60581E09AED0E94E6050895CF932898A5
:100C300080E00E94370680E00E94370680E00E9434
:100C40003706C82F80E00E943706289A2C2F30E004
:100C5000322F2227A901482BCA01CF91089584B1D0
:100C6000876084B92398289A81E58CBD08958EBD4C
:100C70000DB407FEFDCF8EB50895EF92FF920F934E
:100C80001F93CF93DF9328986623A1F0EC01042FE4
:100C9000152F6150E62EF12C2FEFE21AF20AE80E22
:100CA000F91E89910E943706F80181938F01CE15B4
:100CB000DF05B9F7289ADF91CF911F910F91FF902F
:100CC000EF900895CF93DF93C9EED0E081E0888361
:100CD00060E381EC0E94500182E0888360E380EC55
:100CE0000E945001DF91CF91089580E00895CF9345
:100CF000DF93892BD9F4C9EED0E081E08883EBEE55
:100D0000F0E0808180618083AAEEB0E092E09C9365
:100D10001C92808188608083988380818061808339
:100D200084E08C931C92808188608083DF91CF91D6
:100D30000895833039F5613079F018F06230B9F0F8
:100D400023C084E08093410287E391E090934302C3
:100D50008093420281E0089580E18093410285E61C
:100D600091E0909343028093420281E008958AE2E9
:100D7000809341028BE391E090934302809342027F
:100D800081E0089580E0089580E00895CF93DF9397
:100D900000D000D0CDB7DEB7E1EFF0E080818B83EB
:100DA00080818C8385E38093410282E091E090937F
:100DB0004302809342028081898380818A83E8EEA6
:100DC000F0E08081877F80838091410229813A8190
:100DD000482F50E04217530768F48F7161E009F023
:100DE00060E0809141028823C1F18091E80082FF98
:100DF00005C033C02093410260E0F3CFA8EEB0E01D
:100E000041EF50E08C9180FFFDCF80914102811134
:100E100004C019C0915011F416C090E2E091420252
:100E2000F09143029F012F5F3F4F30934302209385
:100E300042028491FA018083809141028150809323
:100E400041028111E7CF8C918E7F8C93809141027A
:100E5000882319F08C9182FFD5CF8091E80082FF22
:100E600009C0E8EEF0E080818B7F808380818F77FE
:100E7000808319C0613051F4E8EEF0E0808180FF9A
:100E8000FDCFE8EEF0E080818E7F8083E8EEF0E039
:100E9000808182FFFDCFE8EEF0E080818B7F808350
:100EA00080818F7780830F900F900F900F90DF914C
:100EB000CF910895E8EEF0E08081877F8083808184
:100EC0008E7F8083808182FFFDCFE8EEF0E080811D
:100ED0008B7F808380818F77808380818E7F8083EA
:100EE0000895CF93DF9300D0CDB7DEB7E1EFF0E008
:100EF0008081898380818A83E8EEF0E08081877F2A
:100F000080836093B70180818E7F8083808180FFA2
:100F1000FDCF0F900F90DF91CF910895CF93DF9386
:100F200000D000D0CDB7DEB7E1EFF0E080818B8359
:100F300080818C838081898380818A83E8EEF0E0E0
:100F40008081877F808389819A81892B39F0809184
:100F5000B7018093F10080818E7F8083E8EEF0E01E
:100F6000808182FFFDCFE8EEF0E080818B7F80837F
:100F700080818F7780830F900F900F900F90DF917B
:100F8000CF910895E8EEF0E08081877F80838081B3
:100F90008E7F8083808182FFFDCF8091F100853537
:100FA00079F48091F1008A3A59F48091F100853505
:100FB00039F48091F1008A3A19F481E08093B80104
:100FC000E8EEF0E080818B7F808380818F77808363
:100FD00080818E7F8083808180FFFDCF0895CF93B5
:100FE000DF9300D000D0CDB7DEB7E1EFF0E0808135
:100FF0008B8380818C8389E08093410287E891E034
:1010000090934302809342028081898380818A8306
:10101000E8EEF0E08081877F808380914102298122
:101020003A81482F50E04217530768F48F7161E00E
:1010300009F060E0809141028823C1F18091E800CD
:1010400082FF05C033C02093410260E0F3CFA8EED9
:10105000B0E041EF50E08C9180FFFDCF80914102E4
:10106000811104C019C0915011F416C090E2E091B2
:101070004202F09143029F012F5F3F4F30934302A2
:10108000209342028491FA01808380914102815031
:10109000809341028111E7CF8C918E7F8C93809158
:1010A0004102882319F08C9182FFD5CF8091E8000E
:1010B00082FF09C0E8EEF0E080818B7F8083808131
:1010C0008F77808319C0613051F4E8EEF0E08081C1
:1010D00080FFFDCFE8EEF0E080818E7F8083E8EE38
:1010E000F0E0808182FFFDCFE8EEF0E080818B7F31
:1010F000808380818F7780830F900F900F900F9067
:10110000DF91CF910895E1EFF0E020819081813867
:1011100079F4663069F4913219F0923229F008C0FE
:101120000E94EF0781E008950E94C60681E00895BD
:101130008132C1F4693019F06A3071F013C0923015
:1011400019F0933029F00EC00E945A0781E00895EB
:101150000E94C20781E00895692F822F0E947107C3
:1011600081E00895813A39F4623039F4822F0E9487
:101170008E0781E0089580E0089580E00895EE0FE5
:0E118000FF1F0590F491E02D0994F894FFCF25
:10118E00001806FFFF0901A1010902090315002637
:10119E00FF0075089540810209040905150026FF18
:1011AE000075089540910209060907150026FF00F3
:1011BE0075089504B102C0040309042A03460050C1
:1011CE000047004100200044004500560045004CF9
:1011DE00004F0050004D0045004E00540020004BC3
:1011EE0000490054001003560041004900440041DC
:1011FE000053005A0009022900010100803209043F
:10120E000000020300000009211101000122350037
:10121E000705810340001407050203400014120164
:10122E00000200000020EB03132000100102000159
:00000001FF
