S0150000526566506F696E7430312D30302E73726563FA
S113000010C01DC01CC01BC01AC019C018C017C026
S113001016C015C014C013C012C011C010C00FC048
S11300200EC011241FBECFEDCDBF20E0A0E6B0E08E
S113003001C01D92A236B207E1F7EBD05CC1E0CF5C
S11300401EBC589A1DBC1CBC1FBC0895C298BA9A09
S11300508AB388658ABBDD9A8AB386608ABBC298F4
S1130060D99ADA9A08959C01DC98DB9890E1DC989F
S1130070332314F4DE9A01C0DE98DC9A220F331F76
S11300809150A9F7DC98DB9A089580EE90ECEBDFB1
S11300902FE38DE093E0215080409040E1F700C0D1
S11300A0000080EE90ECDFDF2FE38DE093E0215041
S11300B080409040E1F700C000008FED90E8D3DF6E
S11300C080E19EEAD0DF82E096ECCDDF80E294E925
S11300D0CADF8CEA92ECC7DF83EF9AECC4DF8BE9CA
S11300E094ECC1DF80ED98E9BEDF88E092E8BBDFE5
S11300F00895DC98DB98DE98DC9ACD9904C0DC98EE
S1130100DE9ADB9AF6CFDC98DE9ADB9A90E0986B65
S1130110AADF0895CF93DF93C82FD92F8AEAE9DFA6
S11301208AEAE7DF8AEAE5DF8DE2E3DF84EDE1DFF7
S11301308D2FDFDF8C2FDDDFDF91CF910895CF93FB
S1130140DF93C82FD0E0DC2FCC27D295DD0FD07EF3
S11301507F71C62BD72B88E392E885DF89EF90E087
S11301600197F1F700C00000CE01D4DF81EE94E0E6
S11301700197F1F700C0000088E092E874DFDF9196
S1130180CF910895DC98DE98DB9880E1DC9ADC98C6
S11301908150E1F720E180E090E0880F991FCD992C
S11301A08160DC9ADC982150C1F7DB9A0895DA98D3
S11301B0D99A2FE332E44FE0215030404040E1F738
S11301C000C000008823D9F090E0D9982FE131EAEB
S11301D047E0215030404040E1F700C00000D99A88
S11301E02FE131EA47E0215030404040E1F700C0C0
S11301F000009F5F9813E9CFD99ADA9A08958FE7A0
S113020094E82EE1815090402040E1F700C00000C6
S1130210F3CF2FE38DE093E0215080409040E1F74D
S113022000C0000013DF31DF0BDF86E0C0DF80EFAA
S11302309AEC19DF83EF9AEC16DF88ED92E813DF6E
S1130240C2E0CF99FECFCEBD9DDF8435944159F5F0
S1130250C29A8DEE92E00197F1F700C0000088E0A9
S113026092E801DFD09AD89889EF90E00197F1F7EE
S113027000C00000D89AD098D99802C058992DC0CF
S1130280C899FCCF1BC0589BFECF8FE295E701971E
S1130290F1F700C00000609160007091610086E099
S11302A04EDFD99ADA9ACCDE80EF9AECDCDE83EF6B
S11302B09AECD9DE88ED92E8D6DEC3CF8CB59DB535
S11302C096958795969587959695879590936100D1
S11302D080936000C298DA98D6CF8CB59DB5969578
S11302E087959695879596958795909361008093C9
S10D02F06000C298D6CFF894FFCF47
S9030000FC
