S01500004F626A506F696E7430312D30302E73726563FC
S113000010C015C014C013C012C011C010C00FC05E
S11300100EC00DC00CC00BC00AC009C008C007C088
S113002006C011241FBECFEDCDBFADD0DDC0E8CFDB
S1130030C19A87B3866087BBD79A8AB383608ABB29
S11300408AB380668ABBD89AD99A08959C01C198CC
S113005090E1C298332314F4DF9A01C0DF98C29A66
S1130060220F331F9150A9F7C298C19A089586EFC1
S11300709FE8ECDF2FE38DE093E021508040904037
S1130080E1F700C0000086EF9FE8E0DF2FE38DE09A
S113009093E0215080409040E1F700C0000080E1EF
S11300A09EEAD4DF82E892EDD1DF82E098ECCEDFE5
S11300B080EA92ECCBDF089598E0CA99FECFCA9B00
S11300C0FECF882314F4DF9A01C0DF98880F915083
S11300D0A1F708959C019FE0CA99FECFCA9BFECF69
S11300E0332314F4DF9A01C0DF98220F331F915099
S11300F099F70895CF93DF93EC01C19828E096EC2B
S1130100C298992314F4DF9A01C0DF98C29A990F18
S11301102150B1F7C2988AEACFDF8AEACDDF8AEAB2
S1130120CBDF8DE2C9DF84EDC7DFCE01D3DFC19A17
S1130130CA99FECFDF91CF9108952FEF2BB91DBC43
S11301401CBC2CE730E035BD24BD2BE330E03BBDC7
S11301502ABD20E430E039BD28BD20EB2FBD20E1CD
S11301602EBD2EB521602EBD40E004C0589B04C0B6
S1130170589A4F5F242F30E082179307B8F71EBCBC
S11301801FBCDD9808952FE38DE093E0215080405B
S11301909040E1F700C000004BDF69DF2FE784E8FF
S11301A09EE1215080409040E1F700C0000088E3C8
S11301B090EC4CDF81EE94E00197F1F700C0000071
S11301C0D898D99884E594E195DF84E190E0B5DF8F
S11301D081EE94E00197F1F700C0000080E290EC1A
S10F01E035DFD89AD99ADACFF894FFCF13
S9030000FC
