:1000000010C015C014C0AEC012C011C010C00FC0C7
:100010000EC00DC00CC00BC00AC009C008C007C08C
:1000200006C011241FBECFEDCDBFE7D05CC1E8CF25
:100030008AB383608ABB0895C19820E109C0C29841
:1000400097FF02C0DF9A01C0DF98C29A880F991FFC
:100050002150A8F7C298C19A089598E00AC0CA9999
:10006000FECFCA9BFECF87FF02C0DF9A01C0DF9898
:10007000880F9150A0F708952FE00BC0CA99FECFCA
:10008000CA9BFECF97FF02C0DF9A01C0DF98880F9E
:10009000991F215098F70895CF93DF93EC01C198F1
:1000A00098E086EC08C0C29887FF02C0DF9A01C0C2
:1000B000DF98C29A880F9150B0F7C298D8988AEA10
:1000C000CCDF8AEACADF8AEAC8DF8DE2C6DF84EDC8
:1000D000C4DFCE01D1DFC19ACA99FECFDF91CF91A3
:1000E0000895C19A87B3866087BBD79A86EF9FE849
:1000F000A3DF000080E19EEA9FDF89E298EC9CDFAD
:1001000082E892ED99DF88EA92EC96DF80EE90EC3F
:1001100093DF08958AB380668ABB0895282F8FEFF6
:100120008BB91DBC1CBC8CE790E095BD84BD8BE3F6
:1001300090E09BBD8ABD80E490E099BD88BD80EBD6
:100140008FBD80E18EBD8EB581608EBDD99880E077
:10015000589BFECF589A8F5F2817D0F71EBC1FBC44
:10016000DD9808951F920F920FB60F9211240F90F1
:100170000FBE0F901F90189541E021E030E080FD08
:100180004F5F2F5F3F4F2031310519F096958795CE
:10019000F6CF842F81700895369A3699FECF84B1B8
:1001A00095B19C01442737FD4095542F8C529140C6
:1001B00084F4CA01B90122E830E040E050E058D0B0
:1001C000655A7A48804090402EE030E040E050E0B0
:1001D0000FC0CA01B90128E532E040E050E048D044
:1001E000615A7A478240904026E430E040E050E097
:1001F00058D0205B3F4FC90108950F931F93CF93B1
:10020000DF938AB383608ABB6CDF8AB380668ABB64
:1002100085B7877E806185BF84E082BB80E18BBF2C
:1002200082EA87B913B886B1876886B928E833E1CE
:1002300004EC19E0CAEFD0E005C0CE010197F1F758
:100240002150304021153105C1F788E390ECF4DEF0
:1002500084E594E121DF84E161DF80E090ECECDE75
:10026000C8010197F1F7D89AD99A28E833E1E5CF88
:10027000FF27EE27BB27AA2760FF04C0A20FB31FEA
:10028000E41FF51F220F331F441F551F96958795B6
:100290007795679589F70097760771F7CF01BD01CC
:1002A0000895A1E21A2EAA1BBB1BFD010DC0AA1FB7
:1002B000BB1FEE1FFF1FA217B307E407F50720F0CF
:1002C000A21BB30BE40BF50B661F771F881F991F4A
:1002D0001A9469F760957095809590959B01AC0193
:0A02E000BD01CF010895F894FFCF8F
:00000001FF
