:1000000010C015C014C013C012C011C010C00FC062
:100010000EC00DC00CC00BC00AC009C008C007C08C
:1000200006C011241FBECFEDCDBFB0D0E6C0E8CFD3
:10003000C19A87B3866087BBD79A8AB383608ABB2D
:100040008AB380668ABBD89AD99A0895C19820E16C
:1000500009C0C29897FF02C0DF9A01C0DF98C29A18
:10006000880F991F2150A8F7C298C19A089586EF6A
:100070009FE8ECDF88EE93E02AEF30E0F90131975A
:10008000F1F70197D9F786EF9FE8E0DF88EE93E07C
:100090002AEF30E0F9013197F1F70197D9F780E1C4
:1000A0009EEAD4DF82E892EDD1DF82E098ECCEDFE9
:1000B00080EA92ECCBDF089598E00AC0CA99FECF9F
:1000C000CA9BFECF87FF02C0DF9A01C0DF98880F6E
:1000D0009150A0F708952FE00BC0CA99FECFCA9B9C
:1000E000FECF97FF02C0DF9A01C0DF98880F991FEB
:1000F000215098F70895CF93DF93EC01C19898E0D1
:1001000086EC08C0C29887FF02C0DF9A01C0DF9862
:10011000C29A880F9150B0F7C2988AEACDDF8AEA76
:10012000CBDF8AEAC9DF8DE2C7DF84EDC5DFCE0110
:10013000D2DFC19ACA99FECFDF91CF910895AC0169
:100140008FEF8BB91DBC1CBC8CE790E095BD84BDC6
:100150008BE390E09BBD8ABD80E490E099BD88BDB3
:1001600080EB8FBD80E18EBD8EB581608EBD20E0BD
:1001700004C0589B02C0589A2F5F822F90E0481706
:100180005907B8F71EBC1FBCDD9808950F931F9345
:10019000CF93DF9388EE93E02AEF30E0F9013197B7
:1001A000F1F70197D9F744DF62DF28EE33E0C2EEC2
:1001B000D4E00AEF10E005C0C8010197F1F7215023
:1001C000304021153105C1F788E390EC3FDFCE01C7
:1001D0000197F1F7D898D99884E594E18CDF84E110
:1001E00090E0ADDFCE010197F1F780E290EC2EDFD9
:0E01F000D89AD99A28EE33E0DFCFF894FFCFEB
:00000001FF
