:1000000010C015C014C013C012C011C010C00FC062
:100010000EC00DC00CC00BC00AC009C008C007C08C
:1000200006C011241FBECFEDCDBFC4D004C1E8CFA0
:10003000C19A87B3866087BBD79A8AB383608ABB2D
:100040008AB380668ABBD89AD99A0895C19820E16C
:1000500009C0C29897FF02C0DF9A01C0DF98C29A18
:10006000880F991F2150A8F7C298C19A0895C19886
:1000700098E008C0C29887FF02C0DF9A01C0DF98ED
:10008000C29A880F9150B0F7C298C19A089586EF2E
:100090009FE8DCDF88EE93E02AEF30E0F90131974A
:1000A000F1F70197D9F786EF9FE8D0DF88EE93E06C
:1000B0002AEF30E0F9013197F1F70197D9F780E89D
:1000C0009CEAC4DF82E892EDC1DF82E098ECBEDFFB
:1000D00080EA92ECBBDF80EBCADF089598E00AC0AB
:1000E000CA99FECFCA9BFECF87FF02C0DF9A01C02C
:1000F000DF98880F9150A0F70895CF93DF93AC015C
:1001000020E004C0280F2170969587950097D1F7BD
:10011000922F97959927979580E0EC01C42BD52BCA
:10012000C19898E086EC08C0C29887FF02C0DF9AA9
:1001300001C0DF98C29A880F9150B0F7C2988AEA3E
:10014000CDDF8AEACBDF8AEAC9DF8DE2C7DF84ED43
:10015000C5DF8D2FC3DF8C2FC1DFCA99FECFC19AB7
:10016000DF91CF910895AC018FEF8BB91DBC1CBC02
:100170008CE790E095BD84BD8BE390E09BBD8ABD8C
:1001800080E490E099BD88BD80EB8FBD80E18EBD9D
:100190008EB581608EBD20E004C0589B02C0589A85
:1001A0002F5F822F90E048175907B8F71EBC1FBC7D
:1001B000DD9808950F931F93CF93DF9388EE93E01C
:1001C0002AEF30E0F9013197F1F70197D9F730DFE5
:1001D0005EDF2AE832E0CEEED2E00AEF10E005C0A2
:1001E000C8010197F1F72150304021153105C1F7C1
:1001F00088E390EC2BDFCE010197F1F7D898D998DE
:1002000084E594E17ADF84E190E0ADDFCE010197EF
:10021000F1F780E290EC1ADFD89AD99A2AE832E016
:10022000DFCF20E004C0280F2170969587950097B6
:0A023000D1F7822F0895F894FFCF54
:00000001FF
